{
  "_format": "hh-sol-artifact-1",
  "contractName": "MyEpicNFT",
  "sourceName": "contracts/MyEpicNFT.sol",
  "abi": [
    {
      "inputs": [],
      "stateMutability": "nonpayable",
      "type": "constructor"
    },
    {
      "anonymous": false,
      "inputs": [
        {
          "indexed": true,
          "internalType": "address",
          "name": "owner",
          "type": "address"
        },
        {
          "indexed": true,
          "internalType": "address",
          "name": "approved",
          "type": "address"
        },
        {
          "indexed": true,
          "internalType": "uint256",
          "name": "tokenId",
          "type": "uint256"
        }
      ],
      "name": "Approval",
      "type": "event"
    },
    {
      "anonymous": false,
      "inputs": [
        {
          "indexed": true,
          "internalType": "address",
          "name": "owner",
          "type": "address"
        },
        {
          "indexed": true,
          "internalType": "address",
          "name": "operator",
          "type": "address"
        },
        {
          "indexed": false,
          "internalType": "bool",
          "name": "approved",
          "type": "bool"
        }
      ],
      "name": "ApprovalForAll",
      "type": "event"
    },
    {
      "anonymous": false,
      "inputs": [
        {
          "indexed": true,
          "internalType": "address",
          "name": "from",
          "type": "address"
        },
        {
          "indexed": true,
          "internalType": "address",
          "name": "to",
          "type": "address"
        },
        {
          "indexed": true,
          "internalType": "uint256",
          "name": "tokenId",
          "type": "uint256"
        }
      ],
      "name": "Transfer",
      "type": "event"
    },
    {
      "inputs": [
        {
          "internalType": "address",
          "name": "to",
          "type": "address"
        },
        {
          "internalType": "uint256",
          "name": "tokenId",
          "type": "uint256"
        }
      ],
      "name": "approve",
      "outputs": [],
      "stateMutability": "nonpayable",
      "type": "function"
    },
    {
      "inputs": [
        {
          "internalType": "address",
          "name": "owner",
          "type": "address"
        }
      ],
      "name": "balanceOf",
      "outputs": [
        {
          "internalType": "uint256",
          "name": "",
          "type": "uint256"
        }
      ],
      "stateMutability": "view",
      "type": "function"
    },
    {
      "inputs": [
        {
          "internalType": "uint256",
          "name": "tokenId",
          "type": "uint256"
        }
      ],
      "name": "getApproved",
      "outputs": [
        {
          "internalType": "address",
          "name": "",
          "type": "address"
        }
      ],
      "stateMutability": "view",
      "type": "function"
    },
    {
      "inputs": [
        {
          "internalType": "address",
          "name": "owner",
          "type": "address"
        },
        {
          "internalType": "address",
          "name": "operator",
          "type": "address"
        }
      ],
      "name": "isApprovedForAll",
      "outputs": [
        {
          "internalType": "bool",
          "name": "",
          "type": "bool"
        }
      ],
      "stateMutability": "view",
      "type": "function"
    },
    {
      "inputs": [],
      "name": "makeEpicNFT",
      "outputs": [],
      "stateMutability": "nonpayable",
      "type": "function"
    },
    {
      "inputs": [],
      "name": "name",
      "outputs": [
        {
          "internalType": "string",
          "name": "",
          "type": "string"
        }
      ],
      "stateMutability": "view",
      "type": "function"
    },
    {
      "inputs": [
        {
          "internalType": "uint256",
          "name": "tokenId",
          "type": "uint256"
        }
      ],
      "name": "ownerOf",
      "outputs": [
        {
          "internalType": "address",
          "name": "",
          "type": "address"
        }
      ],
      "stateMutability": "view",
      "type": "function"
    },
    {
      "inputs": [
        {
          "internalType": "uint256",
          "name": "tokenId",
          "type": "uint256"
        }
      ],
      "name": "pickRandomFirstWord",
      "outputs": [
        {
          "internalType": "string",
          "name": "",
          "type": "string"
        }
      ],
      "stateMutability": "view",
      "type": "function"
    },
    {
      "inputs": [
        {
          "internalType": "uint256",
          "name": "tokenId",
          "type": "uint256"
        }
      ],
      "name": "pickRandomSecondWord",
      "outputs": [
        {
          "internalType": "string",
          "name": "",
          "type": "string"
        }
      ],
      "stateMutability": "view",
      "type": "function"
    },
    {
      "inputs": [
        {
          "internalType": "uint256",
          "name": "tokenId",
          "type": "uint256"
        }
      ],
      "name": "pickRandomThirdWord",
      "outputs": [
        {
          "internalType": "string",
          "name": "",
          "type": "string"
        }
      ],
      "stateMutability": "view",
      "type": "function"
    },
    {
      "inputs": [
        {
          "internalType": "address",
          "name": "from",
          "type": "address"
        },
        {
          "internalType": "address",
          "name": "to",
          "type": "address"
        },
        {
          "internalType": "uint256",
          "name": "tokenId",
          "type": "uint256"
        }
      ],
      "name": "safeTransferFrom",
      "outputs": [],
      "stateMutability": "nonpayable",
      "type": "function"
    },
    {
      "inputs": [
        {
          "internalType": "address",
          "name": "from",
          "type": "address"
        },
        {
          "internalType": "address",
          "name": "to",
          "type": "address"
        },
        {
          "internalType": "uint256",
          "name": "tokenId",
          "type": "uint256"
        },
        {
          "internalType": "bytes",
          "name": "_data",
          "type": "bytes"
        }
      ],
      "name": "safeTransferFrom",
      "outputs": [],
      "stateMutability": "nonpayable",
      "type": "function"
    },
    {
      "inputs": [
        {
          "internalType": "address",
          "name": "operator",
          "type": "address"
        },
        {
          "internalType": "bool",
          "name": "approved",
          "type": "bool"
        }
      ],
      "name": "setApprovalForAll",
      "outputs": [],
      "stateMutability": "nonpayable",
      "type": "function"
    },
    {
      "inputs": [
        {
          "internalType": "bytes4",
          "name": "interfaceId",
          "type": "bytes4"
        }
      ],
      "name": "supportsInterface",
      "outputs": [
        {
          "internalType": "bool",
          "name": "",
          "type": "bool"
        }
      ],
      "stateMutability": "view",
      "type": "function"
    },
    {
      "inputs": [],
      "name": "symbol",
      "outputs": [
        {
          "internalType": "string",
          "name": "",
          "type": "string"
        }
      ],
      "stateMutability": "view",
      "type": "function"
    },
    {
      "inputs": [
        {
          "internalType": "uint256",
          "name": "tokenId",
          "type": "uint256"
        }
      ],
      "name": "tokenURI",
      "outputs": [
        {
          "internalType": "string",
          "name": "",
          "type": "string"
        }
      ],
      "stateMutability": "view",
      "type": "function"
    },
    {
      "inputs": [
        {
          "internalType": "address",
          "name": "from",
          "type": "address"
        },
        {
          "internalType": "address",
          "name": "to",
          "type": "address"
        },
        {
          "internalType": "uint256",
          "name": "tokenId",
          "type": "uint256"
        }
      ],
      "name": "transferFrom",
      "outputs": [],
      "stateMutability": "nonpayable",
      "type": "function"
    }
  ],
  "bytecode": "0x608060405260405180610160016040528061012f81526020016200432f61012f91396008908051906020019062000038929190620006b9565b506040518060c001604052806040518060400160405280600481526020017f506f726b0000000000000000000000000000000000000000000000000000000081525081526020016040518060400160405280600581526020017f546f61737400000000000000000000000000000000000000000000000000000081525081526020016040518060400160405280600581526020017f4f6e696f6e00000000000000000000000000000000000000000000000000000081525081526020016040518060400160405280600681526020017f436172726f74000000000000000000000000000000000000000000000000000081525081526020016040518060400160405280600581526020017f506561636800000000000000000000000000000000000000000000000000000081525081526020016040518060400160405280600581526020017f4170706c650000000000000000000000000000000000000000000000000000008152508152506009906006620001b69291906200074a565b506040518060c001604052806040518060400160405280600381526020017f576974000000000000000000000000000000000000000000000000000000000081525081526020016040518060400160405280600681526020017f436c65766572000000000000000000000000000000000000000000000000000081525081526020016040518060400160405280600681526020017f537461626c65000000000000000000000000000000000000000000000000000081525081526020016040518060400160405280600781526020017f4368616f7469630000000000000000000000000000000000000000000000000081525081526020016040518060400160405280600581526020017f4d6573737900000000000000000000000000000000000000000000000000000081525081526020016040518060400160405280600581526020017f476f646c79000000000000000000000000000000000000000000000000000000815250815250600a906006620003349291906200074a565b506040518060e001604052806040518060400160405280600681526020017f4d6164616d65000000000000000000000000000000000000000000000000000081525081526020016040518060400160405280600381526020017f417065000000000000000000000000000000000000000000000000000000000081525081526020016040518060400160405280600681526020017f4d6973746572000000000000000000000000000000000000000000000000000081525081526020016040518060400160405280600481526020017f4d61616d0000000000000000000000000000000000000000000000000000000081525081526020016040518060400160405280600581526020017f436c6f776e00000000000000000000000000000000000000000000000000000081525081526020016040518060400160405280600481526020017f466f6f6c0000000000000000000000000000000000000000000000000000000081525081526020016040518060400160405280600681526020017f4d61737465720000000000000000000000000000000000000000000000000000815250815250600b906007620004ed929190620007b1565b50348015620004fb57600080fd5b506040518060400160405280600e81526020017f776f726473546f4c6976654e46540000000000000000000000000000000000008152506040518060400160405280600381526020017f57544c0000000000000000000000000000000000000000000000000000000000815250816000908051906020019062000580929190620006b9565b50806001908051906020019062000599929190620006b9565b505050620005e76040518060400160405280601f81526020017f4e465420436f6e7472616374206973206c61756e636865642e2057686f612100815250620005ed60201b620010851760201c565b620009d2565b6200068d81604051602401620006049190620008e6565b6040516020818303038152906040527f41304fac000000000000000000000000000000000000000000000000000000007bffffffffffffffffffffffffffffffffffffffffffffffffffffffff19166020820180517bffffffffffffffffffffffffffffffffffffffffffffffffffffffff83818316178352505050506200069060201b60201c565b50565b60008151905060006a636f6e736f6c652e6c6f679050602083016000808483855afa5050505050565b828054620006c7906200095c565b90600052602060002090601f016020900481019282620006eb576000855562000737565b82601f106200070657805160ff191683800117855562000737565b8280016001018555821562000737579182015b828111156200073657825182559160200191906001019062000719565b5b50905062000746919062000818565b5090565b8280548282559060005260206000209081019282156200079e579160200282015b828111156200079d5782518290805190602001906200078c929190620006b9565b50916020019190600101906200076b565b5b509050620007ad919062000837565b5090565b82805482825590600052602060002090810192821562000805579160200282015b8281111562000804578251829080519060200190620007f3929190620006b9565b5091602001919060010190620007d2565b5b50905062000814919062000837565b5090565b5b808211156200083357600081600090555060010162000819565b5090565b5b808211156200085b57600081816200085191906200085f565b5060010162000838565b5090565b5080546200086d906200095c565b6000825580601f10620008815750620008a2565b601f016020900490600052602060002090810190620008a1919062000818565b5b50565b6000620008b2826200090a565b620008be818562000915565b9350620008d081856020860162000926565b620008db81620009c1565b840191505092915050565b60006020820190508181036000830152620009028184620008a5565b905092915050565b600081519050919050565b600082825260208201905092915050565b60005b838110156200094657808201518184015260208101905062000929565b8381111562000956576000848401525b50505050565b600060028204905060018216806200097557607f821691505b602082108114156200098c576200098b62000992565b5b50919050565b7f4e487b7100000000000000000000000000000000000000000000000000000000600052602260045260246000fd5b6000601f19601f8301169050919050565b61394d80620009e26000396000f3fe608060405234801561001057600080fd5b506004361061010b5760003560e01c80636352211e116100a2578063b187301f11610071578063b187301f146102b6578063b88d4fde146102e6578063c575757a14610302578063c87b56dd14610332578063e985e9c5146103625761010b565b80636352211e1461021c57806370a082311461024c57806395d89b411461027c578063a22cb4651461029a5761010b565b806323b872dd116100de57806323b872dd146101aa5780632de38d68146101c657806342842e0e146101f657806362b41f49146102125761010b565b806301ffc9a71461011057806306fdde0314610140578063081812fc1461015e578063095ea7b31461018e575b600080fd5b61012a60048036038101906101259190612485565b610392565b6040516101379190612b66565b60405180910390f35b610148610474565b6040516101559190612b81565b60405180910390f35b610178600480360381019061017391906124d7565b610506565b6040516101859190612aff565b60405180910390f35b6101a860048036038101906101a39190612449565b61058b565b005b6101c460048036038101906101bf9190612343565b6106a3565b005b6101e060048036038101906101db91906124d7565b610703565b6040516101ed9190612b81565b60405180910390f35b610210600480360381019061020b9190612343565b610821565b005b61021a610841565b005b610236600480360381019061023191906124d7565b6109ef565b6040516102439190612aff565b60405180910390f35b610266600480360381019061026191906122de565b610aa1565b6040516102739190612de1565b60405180910390f35b610284610b59565b6040516102919190612b81565b60405180910390f35b6102b460048036038101906102af919061240d565b610beb565b005b6102d060048036038101906102cb91906124d7565b610c01565b6040516102dd9190612b81565b60405180910390f35b61030060048036038101906102fb9190612392565b610d1f565b005b61031c600480360381019061031791906124d7565b610d81565b6040516103299190612b81565b60405180910390f35b61034c600480360381019061034791906124d7565b610e9f565b6040516103599190612b81565b60405180910390f35b61037c60048036038101906103779190612307565b610ff1565b6040516103899190612b66565b60405180910390f35b60007f80ac58cd000000000000000000000000000000000000000000000000000000007bffffffffffffffffffffffffffffffffffffffffffffffffffffffff1916827bffffffffffffffffffffffffffffffffffffffffffffffffffffffff1916148061045d57507f5b5e139f000000000000000000000000000000000000000000000000000000007bffffffffffffffffffffffffffffffffffffffffffffffffffffffff1916827bffffffffffffffffffffffffffffffffffffffffffffffffffffffff1916145b8061046d575061046c8261111e565b5b9050919050565b60606000805461048390613075565b80601f01602080910402602001604051908101604052809291908181526020018280546104af90613075565b80156104fc5780601f106104d1576101008083540402835291602001916104fc565b820191906000526020600020905b8154815290600101906020018083116104df57829003601f168201915b5050505050905090565b600061051182611188565b610550576040517f08c379a000000000000000000000000000000000000000000000000000000000815260040161054790612d41565b60405180910390fd5b6004600083815260200190815260200160002060009054906101000a900473ffffffffffffffffffffffffffffffffffffffff169050919050565b6000610596826109ef565b90508073ffffffffffffffffffffffffffffffffffffffff168373ffffffffffffffffffffffffffffffffffffffff161415610607576040517f08c379a00000000000000000000000000000000000000000000000000000000081526004016105fe90612da1565b60405180910390fd5b8073ffffffffffffffffffffffffffffffffffffffff166106266111f4565b73ffffffffffffffffffffffffffffffffffffffff16148061065557506106548161064f6111f4565b610ff1565b5b610694576040517f08c379a000000000000000000000000000000000000000000000000000000000815260040161068b90612c81565b60405180910390fd5b61069e83836111fc565b505050565b6106b46106ae6111f4565b826112b5565b6106f3576040517f08c379a00000000000000000000000000000000000000000000000000000000081526004016106ea90612dc1565b60405180910390fd5b6106fe838383611393565b505050565b60606000610737610713846115ef565b6040516020016107239190612abb565b60405160208183030381529060405261179c565b90506009805490508161074a9190613121565b905060098181548110610786577f4e487b7100000000000000000000000000000000000000000000000000000000600052603260045260246000fd5b90600052602060002001805461079b90613075565b80601f01602080910402602001604051908101604052809291908181526020018280546107c790613075565b80156108145780601f106107e957610100808354040283529160200191610814565b820191906000526020600020905b8154815290600101906020018083116107f757829003601f168201915b5050505050915050919050565b61083c83838360405180602001604052806000815250610d1f565b505050565b600061084d60076117cf565b9050600061085a82610703565b9050600061086783610c01565b9050600061087484610d81565b9050600083838360405160200161088d939291906129d2565b604051602081830303815290604052905060006008826040516020016108b4929190612a03565b604051602081830303815290604052905060006108f9836108d4846117dd565b6040516020016108e5929190612a76565b6040516020818303038152906040526117dd565b905060008160405160200161090e9190612add565b604051602081830303815290604052905061095d6040518060400160405280601581526020017f0a2d2d2d2d2d2d2d2d2d2d2d2d2d2d2d2d2d2d2d2d0000000000000000000000815250611085565b61096681611085565b6109a46040518060400160405280601581526020017f2d2d2d2d2d2d2d2d2d2d2d2d2d2d2d2d2d2d2d2d0a0000000000000000000000815250611085565b6109ae338961199b565b6109b888826119b9565b6109c26007611a2d565b6109e56040518060600160405280602481526020016138b4602491398933611a43565b5050505050505050565b6000806002600084815260200190815260200160002060009054906101000a900473ffffffffffffffffffffffffffffffffffffffff169050600073ffffffffffffffffffffffffffffffffffffffff168173ffffffffffffffffffffffffffffffffffffffff161415610a98576040517f08c379a0000000000000000000000000000000000000000000000000000000008152600401610a8f90612cc1565b60405180910390fd5b80915050919050565b60008073ffffffffffffffffffffffffffffffffffffffff168273ffffffffffffffffffffffffffffffffffffffff161415610b12576040517f08c379a0000000000000000000000000000000000000000000000000000000008152600401610b0990612ca1565b60405180910390fd5b600360008373ffffffffffffffffffffffffffffffffffffffff1673ffffffffffffffffffffffffffffffffffffffff168152602001908152602001600020549050919050565b606060018054610b6890613075565b80601f0160208091040260200160405190810160405280929190818152602001828054610b9490613075565b8015610be15780601f10610bb657610100808354040283529160200191610be1565b820191906000526020600020905b815481529060010190602001808311610bc457829003601f168201915b5050505050905090565b610bfd610bf66111f4565b8383611ae2565b5050565b60606000610c35610c11846115ef565b604051602001610c219190612a54565b60405160208183030381529060405261179c565b9050600a8054905081610c489190613121565b9050600a8181548110610c84577f4e487b7100000000000000000000000000000000000000000000000000000000600052603260045260246000fd5b906000526020600020018054610c9990613075565b80601f0160208091040260200160405190810160405280929190818152602001828054610cc590613075565b8015610d125780601f10610ce757610100808354040283529160200191610d12565b820191906000526020600020905b815481529060010190602001808311610cf557829003601f168201915b5050505050915050919050565b610d30610d2a6111f4565b836112b5565b610d6f576040517f08c379a0000000000000000000000000000000000000000000000000000000008152600401610d6690612dc1565b60405180910390fd5b610d7b84848484611c4f565b50505050565b60606000610db5610d91846115ef565b604051602001610da19190612a32565b60405160208183030381529060405261179c565b9050600b8054905081610dc89190613121565b9050600b8181548110610e04577f4e487b7100000000000000000000000000000000000000000000000000000000600052603260045260246000fd5b906000526020600020018054610e1990613075565b80601f0160208091040260200160405190810160405280929190818152602001828054610e4590613075565b8015610e925780601f10610e6757610100808354040283529160200191610e92565b820191906000526020600020905b815481529060010190602001808311610e7557829003601f168201915b5050505050915050919050565b6060610eaa82611188565b610ee9576040517f08c379a0000000000000000000000000000000000000000000000000000000008152600401610ee090612d21565b60405180910390fd5b6000600660008481526020019081526020016000208054610f0990613075565b80601f0160208091040260200160405190810160405280929190818152602001828054610f3590613075565b8015610f825780601f10610f5757610100808354040283529160200191610f82565b820191906000526020600020905b815481529060010190602001808311610f6557829003601f168201915b505050505090506000610f93611cab565b9050600081511415610fa9578192505050610fec565b600082511115610fde578082604051602001610fc69291906129ae565b60405160208183030381529060405292505050610fec565b610fe784611cc2565b925050505b919050565b6000600560008473ffffffffffffffffffffffffffffffffffffffff1673ffffffffffffffffffffffffffffffffffffffff16815260200190815260200160002060008373ffffffffffffffffffffffffffffffffffffffff1673ffffffffffffffffffffffffffffffffffffffff16815260200190815260200160002060009054906101000a900460ff16905092915050565b61111b816040516024016110999190612b81565b6040516020818303038152906040527f41304fac000000000000000000000000000000000000000000000000000000007bffffffffffffffffffffffffffffffffffffffffffffffffffffffff19166020820180517bffffffffffffffffffffffffffffffffffffffffffffffffffffffff8381831617835250505050611d69565b50565b60007f01ffc9a7000000000000000000000000000000000000000000000000000000007bffffffffffffffffffffffffffffffffffffffffffffffffffffffff1916827bffffffffffffffffffffffffffffffffffffffffffffffffffffffff1916149050919050565b60008073ffffffffffffffffffffffffffffffffffffffff166002600084815260200190815260200160002060009054906101000a900473ffffffffffffffffffffffffffffffffffffffff1673ffffffffffffffffffffffffffffffffffffffff1614159050919050565b600033905090565b816004600083815260200190815260200160002060006101000a81548173ffffffffffffffffffffffffffffffffffffffff021916908373ffffffffffffffffffffffffffffffffffffffff160217905550808273ffffffffffffffffffffffffffffffffffffffff1661126f836109ef565b73ffffffffffffffffffffffffffffffffffffffff167f8c5be1e5ebec7d5bd14f71427d1e84f3dd0314c0f7b2291e5b200ac8c7c3b92560405160405180910390a45050565b60006112c082611188565b6112ff576040517f08c379a00000000000000000000000000000000000000000000000000000000081526004016112f690612c61565b60405180910390fd5b600061130a836109ef565b90508073ffffffffffffffffffffffffffffffffffffffff168473ffffffffffffffffffffffffffffffffffffffff16148061137957508373ffffffffffffffffffffffffffffffffffffffff1661136184610506565b73ffffffffffffffffffffffffffffffffffffffff16145b8061138a57506113898185610ff1565b5b91505092915050565b8273ffffffffffffffffffffffffffffffffffffffff166113b3826109ef565b73ffffffffffffffffffffffffffffffffffffffff1614611409576040517f08c379a000000000000000000000000000000000000000000000000000000000815260040161140090612d61565b60405180910390fd5b600073ffffffffffffffffffffffffffffffffffffffff168273ffffffffffffffffffffffffffffffffffffffff161415611479576040517f08c379a000000000000000000000000000000000000000000000000000000000815260040161147090612c21565b60405180910390fd5b611484838383611d92565b61148f6000826111fc565b6001600360008573ffffffffffffffffffffffffffffffffffffffff1673ffffffffffffffffffffffffffffffffffffffff16815260200190815260200160002060008282546114df9190612f8b565b925050819055506001600360008473ffffffffffffffffffffffffffffffffffffffff1673ffffffffffffffffffffffffffffffffffffffff16815260200190815260200160002060008282546115369190612eaa565b92505081905550816002600083815260200190815260200160002060006101000a81548173ffffffffffffffffffffffffffffffffffffffff021916908373ffffffffffffffffffffffffffffffffffffffff160217905550808273ffffffffffffffffffffffffffffffffffffffff168473ffffffffffffffffffffffffffffffffffffffff167fddf252ad1be2c89b69c2b068fc378daa952ba7f163c4a11628f55a4df523b3ef60405160405180910390a4505050565b60606000821415611637576040518060400160405280600181526020017f30000000000000000000000000000000000000000000000000000000000000008152509050611797565b600082905060005b60008214611669578080611652906130d8565b915050600a826116629190612f00565b915061163f565b60008167ffffffffffffffff8111156116ab577f4e487b7100000000000000000000000000000000000000000000000000000000600052604160045260246000fd5b6040519080825280601f01601f1916602001820160405280156116dd5781602001600182028036833780820191505090505b5090505b60008514611790576001826116f69190612f8b565b9150600a856117059190613121565b60306117119190612eaa565b60f81b81838151811061174d577f4e487b7100000000000000000000000000000000000000000000000000000000600052603260045260246000fd5b60200101907effffffffffffffffffffffffffffffffffffffffffffffffffffffffffffff1916908160001a905350600a856117899190612f00565b94506116e1565b8093505050505b919050565b6000816040516020016117af9190612997565b6040516020818303038152906040528051906020012060001c9050919050565b600081600001549050919050565b606060008251905060008114156118065760405180602001604052806000815250915050611996565b600060036002836118179190612eaa565b6118219190612f00565b600461182d9190612f31565b9050600060208261183e9190612eaa565b67ffffffffffffffff81111561187d577f4e487b7100000000000000000000000000000000000000000000000000000000600052604160045260246000fd5b6040519080825280601f01601f1916602001820160405280156118af5781602001600182028036833780820191505090505b50905060006040518060600160405280604081526020016138d8604091399050600181016020830160005b868110156119535760038101905062ffffff818a015116603f8160121c168401518060081b905060ff603f83600c1c1686015116810190508060081b905060ff603f8360061c1686015116810190508060081b905060ff603f831686015116810190508060e01b905080845260048401935050506118da565b50600386066001811461196d576002811461197d57611988565b613d3d60f01b6002830352611988565b603d60f81b60018303525b508484525050819450505050505b919050565b6119b5828260405180602001604052806000815250611d97565b5050565b6119c282611188565b611a01576040517f08c379a00000000000000000000000000000000000000000000000000000000081526004016119f890612ce1565b60405180910390fd5b80600660008481526020019081526020016000209080519060200190611a2892919061216a565b505050565b6001816000016000828254019250508190555050565b611add838383604051602401611a5b93929190612ba3565b6040516020818303038152906040527fe3849f79000000000000000000000000000000000000000000000000000000007bffffffffffffffffffffffffffffffffffffffffffffffffffffffff19166020820180517bffffffffffffffffffffffffffffffffffffffffffffffffffffffff8381831617835250505050611d69565b505050565b8173ffffffffffffffffffffffffffffffffffffffff168373ffffffffffffffffffffffffffffffffffffffff161415611b51576040517f08c379a0000000000000000000000000000000000000000000000000000000008152600401611b4890612c41565b60405180910390fd5b80600560008573ffffffffffffffffffffffffffffffffffffffff1673ffffffffffffffffffffffffffffffffffffffff16815260200190815260200160002060008473ffffffffffffffffffffffffffffffffffffffff1673ffffffffffffffffffffffffffffffffffffffff16815260200190815260200160002060006101000a81548160ff0219169083151502179055508173ffffffffffffffffffffffffffffffffffffffff168373ffffffffffffffffffffffffffffffffffffffff167f17307eab39ab6107e8899845ad3d59bd9653f200f220920489ca2b5937696c3183604051611c429190612b66565b60405180910390a3505050565b611c5a848484611393565b611c6684848484611df2565b611ca5576040517f08c379a0000000000000000000000000000000000000000000000000000000008152600401611c9c90612be1565b60405180910390fd5b50505050565b606060405180602001604052806000815250905090565b6060611ccd82611188565b611d0c576040517f08c379a0000000000000000000000000000000000000000000000000000000008152600401611d0390612d81565b60405180910390fd5b6000611d16611cab565b90506000815111611d365760405180602001604052806000815250611d61565b80611d40846115ef565b604051602001611d519291906129ae565b6040516020818303038152906040525b915050919050565b60008151905060006a636f6e736f6c652e6c6f679050602083016000808483855afa5050505050565b505050565b611da18383611f89565b611dae6000848484611df2565b611ded576040517f08c379a0000000000000000000000000000000000000000000000000000000008152600401611de490612be1565b60405180910390fd5b505050565b6000611e138473ffffffffffffffffffffffffffffffffffffffff16612157565b15611f7c578373ffffffffffffffffffffffffffffffffffffffff1663150b7a02611e3c6111f4565b8786866040518563ffffffff1660e01b8152600401611e5e9493929190612b1a565b602060405180830381600087803b158015611e7857600080fd5b505af1925050508015611ea957506040513d601f19601f82011682018060405250810190611ea691906124ae565b60015b611f2c573d8060008114611ed9576040519150601f19603f3d011682016040523d82523d6000602084013e611ede565b606091505b50600081511415611f24576040517f08c379a0000000000000000000000000000000000000000000000000000000008152600401611f1b90612be1565b60405180910390fd5b805181602001fd5b63150b7a0260e01b7bffffffffffffffffffffffffffffffffffffffffffffffffffffffff1916817bffffffffffffffffffffffffffffffffffffffffffffffffffffffff191614915050611f81565b600190505b949350505050565b600073ffffffffffffffffffffffffffffffffffffffff168273ffffffffffffffffffffffffffffffffffffffff161415611ff9576040517f08c379a0000000000000000000000000000000000000000000000000000000008152600401611ff090612d01565b60405180910390fd5b61200281611188565b15612042576040517f08c379a000000000000000000000000000000000000000000000000000000000815260040161203990612c01565b60405180910390fd5b61204e60008383611d92565b6001600360008473ffffffffffffffffffffffffffffffffffffffff1673ffffffffffffffffffffffffffffffffffffffff168152602001908152602001600020600082825461209e9190612eaa565b92505081905550816002600083815260200190815260200160002060006101000a81548173ffffffffffffffffffffffffffffffffffffffff021916908373ffffffffffffffffffffffffffffffffffffffff160217905550808273ffffffffffffffffffffffffffffffffffffffff16600073ffffffffffffffffffffffffffffffffffffffff167fddf252ad1be2c89b69c2b068fc378daa952ba7f163c4a11628f55a4df523b3ef60405160405180910390a45050565b600080823b905060008111915050919050565b82805461217690613075565b90600052602060002090601f01602090048101928261219857600085556121df565b82601f106121b157805160ff19168380011785556121df565b828001600101855582156121df579182015b828111156121de5782518255916020019190600101906121c3565b5b5090506121ec91906121f0565b5090565b5b808211156122095760008160009055506001016121f1565b5090565b600061222061221b84612e21565b612dfc565b90508281526020810184848401111561223857600080fd5b612243848285613033565b509392505050565b60008135905061225a81613857565b92915050565b60008135905061226f8161386e565b92915050565b60008135905061228481613885565b92915050565b60008151905061229981613885565b92915050565b600082601f8301126122b057600080fd5b81356122c084826020860161220d565b91505092915050565b6000813590506122d88161389c565b92915050565b6000602082840312156122f057600080fd5b60006122fe8482850161224b565b91505092915050565b6000806040838503121561231a57600080fd5b60006123288582860161224b565b92505060206123398582860161224b565b9150509250929050565b60008060006060848603121561235857600080fd5b60006123668682870161224b565b93505060206123778682870161224b565b9250506040612388868287016122c9565b9150509250925092565b600080600080608085870312156123a857600080fd5b60006123b68782880161224b565b94505060206123c78782880161224b565b93505060406123d8878288016122c9565b925050606085013567ffffffffffffffff8111156123f557600080fd5b6124018782880161229f565b91505092959194509250565b6000806040838503121561242057600080fd5b600061242e8582860161224b565b925050602061243f85828601612260565b9150509250929050565b6000806040838503121561245c57600080fd5b600061246a8582860161224b565b925050602061247b858286016122c9565b9150509250929050565b60006020828403121561249757600080fd5b60006124a584828501612275565b91505092915050565b6000602082840312156124c057600080fd5b60006124ce8482850161228a565b91505092915050565b6000602082840312156124e957600080fd5b60006124f7848285016122c9565b91505092915050565b61250981612fbf565b82525050565b61251881612fd1565b82525050565b600061252982612e67565b6125338185612e7d565b9350612543818560208601613042565b61254c8161320e565b840191505092915050565b600061256282612e72565b61256c8185612e8e565b935061257c818560208601613042565b6125858161320e565b840191505092915050565b600061259b82612e72565b6125a58185612e9f565b93506125b5818560208601613042565b80840191505092915050565b600081546125ce81613075565b6125d88186612e9f565b945060018216600081146125f3576001811461260457612637565b60ff19831686528186019350612637565b61260d85612e52565b60005b8381101561262f57815481890152600182019150602081019050612610565b838801955050505b50505092915050565b600061264d603283612e8e565b91506126588261321f565b604082019050919050565b6000612670601c83612e8e565b915061267b8261326e565b602082019050919050565b6000612693600a83612e9f565b915061269e82613297565b600a82019050919050565b60006126b6602483612e8e565b91506126c1826132c0565b604082019050919050565b60006126d9601983612e8e565b91506126e48261330f565b602082019050919050565b60006126fc600b83612e9f565b915061270782613338565b600b82019050919050565b600061271f602c83612e8e565b915061272a82613361565b604082019050919050565b6000612742600d83612e9f565b915061274d826133b0565b600d82019050919050565b6000612765606283612e9f565b9150612770826133d9565b606282019050919050565b6000612788603883612e8e565b915061279382613474565b604082019050919050565b60006127ab602a83612e8e565b91506127b6826134c3565b604082019050919050565b60006127ce602983612e8e565b91506127d982613512565b604082019050919050565b60006127f1602e83612e8e565b91506127fc82613561565b604082019050919050565b6000612814600283612e9f565b915061281f826135b0565b600282019050919050565b6000612837602083612e8e565b9150612842826135d9565b602082019050919050565b600061285a603183612e8e565b915061286582613602565b604082019050919050565b600061287d602c83612e8e565b915061288882613651565b604082019050919050565b60006128a0602983612e8e565b91506128ab826136a0565b604082019050919050565b60006128c3602f83612e8e565b91506128ce826136ef565b604082019050919050565b60006128e6600a83612e9f565b91506128f18261373e565b600a82019050919050565b6000612909602183612e8e565b915061291482613767565b604082019050919050565b600061292c600a83612e9f565b9150612937826137b6565b600a82019050919050565b600061294f601d83612e9f565b915061295a826137df565b601d82019050919050565b6000612972603183612e8e565b915061297d82613808565b604082019050919050565b61299181613029565b82525050565b60006129a38284612590565b915081905092915050565b60006129ba8285612590565b91506129c68284612590565b91508190509392505050565b60006129de8286612590565b91506129ea8285612590565b91506129f68284612590565b9150819050949350505050565b6000612a0f82856125c1565b9150612a1b8284612590565b9150612a2682612735565b91508190509392505050565b6000612a3d82612686565b9150612a498284612590565b915081905092915050565b6000612a5f826126ef565b9150612a6b8284612590565b915081905092915050565b6000612a81826128d9565b9150612a8d8285612590565b9150612a9882612758565b9150612aa48284612590565b9150612aaf82612807565b91508190509392505050565b6000612ac68261291f565b9150612ad28284612590565b915081905092915050565b6000612ae882612942565b9150612af48284612590565b915081905092915050565b6000602082019050612b146000830184612500565b92915050565b6000608082019050612b2f6000830187612500565b612b3c6020830186612500565b612b496040830185612988565b8181036060830152612b5b818461251e565b905095945050505050565b6000602082019050612b7b600083018461250f565b92915050565b60006020820190508181036000830152612b9b8184612557565b905092915050565b60006060820190508181036000830152612bbd8186612557565b9050612bcc6020830185612988565b612bd96040830184612500565b949350505050565b60006020820190508181036000830152612bfa81612640565b9050919050565b60006020820190508181036000830152612c1a81612663565b9050919050565b60006020820190508181036000830152612c3a816126a9565b9050919050565b60006020820190508181036000830152612c5a816126cc565b9050919050565b60006020820190508181036000830152612c7a81612712565b9050919050565b60006020820190508181036000830152612c9a8161277b565b9050919050565b60006020820190508181036000830152612cba8161279e565b9050919050565b60006020820190508181036000830152612cda816127c1565b9050919050565b60006020820190508181036000830152612cfa816127e4565b9050919050565b60006020820190508181036000830152612d1a8161282a565b9050919050565b60006020820190508181036000830152612d3a8161284d565b9050919050565b60006020820190508181036000830152612d5a81612870565b9050919050565b60006020820190508181036000830152612d7a81612893565b9050919050565b60006020820190508181036000830152612d9a816128b6565b9050919050565b60006020820190508181036000830152612dba816128fc565b9050919050565b60006020820190508181036000830152612dda81612965565b9050919050565b6000602082019050612df66000830184612988565b92915050565b6000612e06612e17565b9050612e1282826130a7565b919050565b6000604051905090565b600067ffffffffffffffff821115612e3c57612e3b6131df565b5b612e458261320e565b9050602081019050919050565b60008190508160005260206000209050919050565b600081519050919050565b600081519050919050565b600082825260208201905092915050565b600082825260208201905092915050565b600081905092915050565b6000612eb582613029565b9150612ec083613029565b9250827fffffffffffffffffffffffffffffffffffffffffffffffffffffffffffffffff03821115612ef557612ef4613152565b5b828201905092915050565b6000612f0b82613029565b9150612f1683613029565b925082612f2657612f25613181565b5b828204905092915050565b6000612f3c82613029565b9150612f4783613029565b9250817fffffffffffffffffffffffffffffffffffffffffffffffffffffffffffffffff0483118215151615612f8057612f7f613152565b5b828202905092915050565b6000612f9682613029565b9150612fa183613029565b925082821015612fb457612fb3613152565b5b828203905092915050565b6000612fca82613009565b9050919050565b60008115159050919050565b60007fffffffff0000000000000000000000000000000000000000000000000000000082169050919050565b600073ffffffffffffffffffffffffffffffffffffffff82169050919050565b6000819050919050565b82818337600083830152505050565b60005b83811015613060578082015181840152602081019050613045565b8381111561306f576000848401525b50505050565b6000600282049050600182168061308d57607f821691505b602082108114156130a1576130a06131b0565b5b50919050565b6130b08261320e565b810181811067ffffffffffffffff821117156130cf576130ce6131df565b5b80604052505050565b60006130e382613029565b91507fffffffffffffffffffffffffffffffffffffffffffffffffffffffffffffffff82141561311657613115613152565b5b600182019050919050565b600061312c82613029565b915061313783613029565b92508261314757613146613181565b5b828206905092915050565b7f4e487b7100000000000000000000000000000000000000000000000000000000600052601160045260246000fd5b7f4e487b7100000000000000000000000000000000000000000000000000000000600052601260045260246000fd5b7f4e487b7100000000000000000000000000000000000000000000000000000000600052602260045260246000fd5b7f4e487b7100000000000000000000000000000000000000000000000000000000600052604160045260246000fd5b6000601f19601f8301169050919050565b7f4552433732313a207472616e7366657220746f206e6f6e20455243373231526560008201527f63656976657220696d706c656d656e7465720000000000000000000000000000602082015250565b7f4552433732313a20746f6b656e20616c7265616479206d696e74656400000000600082015250565b7f54484952445f574f524400000000000000000000000000000000000000000000600082015250565b7f4552433732313a207472616e7366657220746f20746865207a65726f2061646460008201527f7265737300000000000000000000000000000000000000000000000000000000602082015250565b7f4552433732313a20617070726f766520746f2063616c6c657200000000000000600082015250565b7f5345434f4e445f574f5244000000000000000000000000000000000000000000600082015250565b7f4552433732313a206f70657261746f7220717565727920666f72206e6f6e657860008201527f697374656e7420746f6b656e0000000000000000000000000000000000000000602082015250565b7f3c2f746578743e3c2f7376673e00000000000000000000000000000000000000600082015250565b7f222c20226465736372697074696f6e223a20224120636f6c6c656374696f6e2060008201527f6f66207068696c6f736f706869657320746f204c6976652042792e222c20226960208201527f6d616765223a2022646174613a696d6167652f7376672b786d6c3b626173653660408201527f342c000000000000000000000000000000000000000000000000000000000000606082015250565b7f4552433732313a20617070726f76652063616c6c6572206973206e6f74206f7760008201527f6e6572206e6f7220617070726f76656420666f7220616c6c0000000000000000602082015250565b7f4552433732313a2062616c616e636520717565727920666f7220746865207a6560008201527f726f206164647265737300000000000000000000000000000000000000000000602082015250565b7f4552433732313a206f776e657220717565727920666f72206e6f6e657869737460008201527f656e7420746f6b656e0000000000000000000000000000000000000000000000602082015250565b7f45524337323155524953746f726167653a2055524920736574206f66206e6f6e60008201527f6578697374656e7420746f6b656e000000000000000000000000000000000000602082015250565b7f227d000000000000000000000000000000000000000000000000000000000000600082015250565b7f4552433732313a206d696e7420746f20746865207a65726f2061646472657373600082015250565b7f45524337323155524953746f726167653a2055524920717565727920666f722060008201527f6e6f6e6578697374656e7420746f6b656e000000000000000000000000000000602082015250565b7f4552433732313a20617070726f76656420717565727920666f72206e6f6e657860008201527f697374656e7420746f6b656e0000000000000000000000000000000000000000602082015250565b7f4552433732313a207472616e73666572206f6620746f6b656e2074686174206960008201527f73206e6f74206f776e0000000000000000000000000000000000000000000000602082015250565b7f4552433732314d657461646174613a2055524920717565727920666f72206e6f60008201527f6e6578697374656e7420746f6b656e0000000000000000000000000000000000602082015250565b7f7b226e616d65223a202200000000000000000000000000000000000000000000600082015250565b7f4552433732313a20617070726f76616c20746f2063757272656e74206f776e6560008201527f7200000000000000000000000000000000000000000000000000000000000000602082015250565b7f46495253545f574f524400000000000000000000000000000000000000000000600082015250565b7f646174613a6170706c69636174696f6e2f6a736f6e3b6261736536342c000000600082015250565b7f4552433732313a207472616e736665722063616c6c6572206973206e6f74206f60008201527f776e6572206e6f7220617070726f766564000000000000000000000000000000602082015250565b61386081612fbf565b811461386b57600080fd5b50565b61387781612fd1565b811461388257600080fd5b50565b61388e81612fdd565b811461389957600080fd5b50565b6138a581613029565b81146138b057600080fd5b5056fe4e4654207769746820494420257320686173206265656e206d696e74656420746f2025734142434445464748494a4b4c4d4e4f505152535455565758595a6162636465666768696a6b6c6d6e6f707172737475767778797a303132333435363738392b2fa26469706673582212205e48bb8eaf7021254ee7eb2c4f82217d07077344bb38f438409581615ed8ae5c64736f6c634300080400333c73766720786d6c6e733d27687474703a2f2f7777772e77332e6f72672f323030302f73766727207072657365727665417370656374526174696f3d27784d696e594d696e206d656574272076696577426f783d273020302033353020333530273e3c7374796c653e2e62617365207b2066696c6c3a2077686974653b20666f6e742d66616d696c793a2073657269663b20666f6e742d73697a653a20323470783b207d3c2f7374796c653e3c726563742077696474683d273130302527206865696768743d2731303025272066696c6c3d27626c61636b27202f3e3c7465787420783d273530252720793d273530252720636c6173733d27626173652720646f6d696e616e742d626173656c696e653d276d6964646c652720746578742d616e63686f723d276d6964646c65273e",
  "linkReferences": {},
  "deployedLinkReferences": {}
}