{
  "_format": "hh-sol-artifact-1",
  "contractName": "MyEpicNFT",
  "sourceName": "contracts/MyEpicNFT.sol",
  "abi": [
    {
      "inputs": [],
      "stateMutability": "nonpayable",
      "type": "constructor"
    },
    {
      "anonymous": false,
      "inputs": [
        {
          "indexed": true,
          "internalType": "address",
          "name": "owner",
          "type": "address"
        },
        {
          "indexed": true,
          "internalType": "address",
          "name": "approved",
          "type": "address"
        },
        {
          "indexed": true,
          "internalType": "uint256",
          "name": "tokenId",
          "type": "uint256"
        }
      ],
      "name": "Approval",
      "type": "event"
    },
    {
      "anonymous": false,
      "inputs": [
        {
          "indexed": true,
          "internalType": "address",
          "name": "owner",
          "type": "address"
        },
        {
          "indexed": true,
          "internalType": "address",
          "name": "operator",
          "type": "address"
        },
        {
          "indexed": false,
          "internalType": "bool",
          "name": "approved",
          "type": "bool"
        }
      ],
      "name": "ApprovalForAll",
      "type": "event"
    },
    {
      "anonymous": false,
      "inputs": [
        {
          "indexed": false,
          "internalType": "address",
          "name": "sender",
          "type": "address"
        },
        {
          "indexed": false,
          "internalType": "uint256",
          "name": "tokenId",
          "type": "uint256"
        }
      ],
      "name": "NewEpicNFTMinted",
      "type": "event"
    },
    {
      "anonymous": false,
      "inputs": [
        {
          "indexed": true,
          "internalType": "address",
          "name": "from",
          "type": "address"
        },
        {
          "indexed": true,
          "internalType": "address",
          "name": "to",
          "type": "address"
        },
        {
          "indexed": true,
          "internalType": "uint256",
          "name": "tokenId",
          "type": "uint256"
        }
      ],
      "name": "Transfer",
      "type": "event"
    },
    {
      "inputs": [
        {
          "internalType": "address",
          "name": "to",
          "type": "address"
        },
        {
          "internalType": "uint256",
          "name": "tokenId",
          "type": "uint256"
        }
      ],
      "name": "approve",
      "outputs": [],
      "stateMutability": "nonpayable",
      "type": "function"
    },
    {
      "inputs": [
        {
          "internalType": "address",
          "name": "owner",
          "type": "address"
        }
      ],
      "name": "balanceOf",
      "outputs": [
        {
          "internalType": "uint256",
          "name": "",
          "type": "uint256"
        }
      ],
      "stateMutability": "view",
      "type": "function"
    },
    {
      "inputs": [
        {
          "internalType": "uint256",
          "name": "tokenId",
          "type": "uint256"
        }
      ],
      "name": "getApproved",
      "outputs": [
        {
          "internalType": "address",
          "name": "",
          "type": "address"
        }
      ],
      "stateMutability": "view",
      "type": "function"
    },
    {
      "inputs": [],
      "name": "getTotalMint",
      "outputs": [
        {
          "internalType": "uint256",
          "name": "",
          "type": "uint256"
        }
      ],
      "stateMutability": "view",
      "type": "function"
    },
    {
      "inputs": [
        {
          "internalType": "address",
          "name": "owner",
          "type": "address"
        },
        {
          "internalType": "address",
          "name": "operator",
          "type": "address"
        }
      ],
      "name": "isApprovedForAll",
      "outputs": [
        {
          "internalType": "bool",
          "name": "",
          "type": "bool"
        }
      ],
      "stateMutability": "view",
      "type": "function"
    },
    {
      "inputs": [],
      "name": "makeEpicNFT",
      "outputs": [],
      "stateMutability": "nonpayable",
      "type": "function"
    },
    {
      "inputs": [],
      "name": "name",
      "outputs": [
        {
          "internalType": "string",
          "name": "",
          "type": "string"
        }
      ],
      "stateMutability": "view",
      "type": "function"
    },
    {
      "inputs": [
        {
          "internalType": "uint256",
          "name": "tokenId",
          "type": "uint256"
        }
      ],
      "name": "ownerOf",
      "outputs": [
        {
          "internalType": "address",
          "name": "",
          "type": "address"
        }
      ],
      "stateMutability": "view",
      "type": "function"
    },
    {
      "inputs": [
        {
          "internalType": "uint256",
          "name": "tokenId",
          "type": "uint256"
        }
      ],
      "name": "pickRandomColor",
      "outputs": [
        {
          "internalType": "string",
          "name": "",
          "type": "string"
        }
      ],
      "stateMutability": "view",
      "type": "function"
    },
    {
      "inputs": [
        {
          "internalType": "uint256",
          "name": "tokenId",
          "type": "uint256"
        }
      ],
      "name": "pickRandomFirstWord",
      "outputs": [
        {
          "internalType": "string",
          "name": "",
          "type": "string"
        }
      ],
      "stateMutability": "view",
      "type": "function"
    },
    {
      "inputs": [
        {
          "internalType": "uint256",
          "name": "tokenId",
          "type": "uint256"
        }
      ],
      "name": "pickRandomSecondWord",
      "outputs": [
        {
          "internalType": "string",
          "name": "",
          "type": "string"
        }
      ],
      "stateMutability": "view",
      "type": "function"
    },
    {
      "inputs": [
        {
          "internalType": "uint256",
          "name": "tokenId",
          "type": "uint256"
        }
      ],
      "name": "pickRandomThirdWord",
      "outputs": [
        {
          "internalType": "string",
          "name": "",
          "type": "string"
        }
      ],
      "stateMutability": "view",
      "type": "function"
    },
    {
      "inputs": [
        {
          "internalType": "address",
          "name": "from",
          "type": "address"
        },
        {
          "internalType": "address",
          "name": "to",
          "type": "address"
        },
        {
          "internalType": "uint256",
          "name": "tokenId",
          "type": "uint256"
        }
      ],
      "name": "safeTransferFrom",
      "outputs": [],
      "stateMutability": "nonpayable",
      "type": "function"
    },
    {
      "inputs": [
        {
          "internalType": "address",
          "name": "from",
          "type": "address"
        },
        {
          "internalType": "address",
          "name": "to",
          "type": "address"
        },
        {
          "internalType": "uint256",
          "name": "tokenId",
          "type": "uint256"
        },
        {
          "internalType": "bytes",
          "name": "_data",
          "type": "bytes"
        }
      ],
      "name": "safeTransferFrom",
      "outputs": [],
      "stateMutability": "nonpayable",
      "type": "function"
    },
    {
      "inputs": [
        {
          "internalType": "address",
          "name": "operator",
          "type": "address"
        },
        {
          "internalType": "bool",
          "name": "approved",
          "type": "bool"
        }
      ],
      "name": "setApprovalForAll",
      "outputs": [],
      "stateMutability": "nonpayable",
      "type": "function"
    },
    {
      "inputs": [
        {
          "internalType": "bytes4",
          "name": "interfaceId",
          "type": "bytes4"
        }
      ],
      "name": "supportsInterface",
      "outputs": [
        {
          "internalType": "bool",
          "name": "",
          "type": "bool"
        }
      ],
      "stateMutability": "view",
      "type": "function"
    },
    {
      "inputs": [],
      "name": "symbol",
      "outputs": [
        {
          "internalType": "string",
          "name": "",
          "type": "string"
        }
      ],
      "stateMutability": "view",
      "type": "function"
    },
    {
      "inputs": [
        {
          "internalType": "uint256",
          "name": "tokenId",
          "type": "uint256"
        }
      ],
      "name": "tokenURI",
      "outputs": [
        {
          "internalType": "string",
          "name": "",
          "type": "string"
        }
      ],
      "stateMutability": "view",
      "type": "function"
    },
    {
      "inputs": [
        {
          "internalType": "address",
          "name": "from",
          "type": "address"
        },
        {
          "internalType": "address",
          "name": "to",
          "type": "address"
        },
        {
          "internalType": "uint256",
          "name": "tokenId",
          "type": "uint256"
        }
      ],
      "name": "transferFrom",
      "outputs": [],
      "stateMutability": "nonpayable",
      "type": "function"
    }
  ],
  "bytecode": "0x608060405260405180610100016040528060d381526020016200488760d391396008908051906020019062000036929190620008a2565b506040518060800160405280605781526020016200495a605791396009908051906020019062000068929190620008a2565b506040518060c001604052806040518060400160405280600481526020017f506f726b0000000000000000000000000000000000000000000000000000000081525081526020016040518060400160405280600581526020017f546f61737400000000000000000000000000000000000000000000000000000081525081526020016040518060400160405280600581526020017f4f6e696f6e00000000000000000000000000000000000000000000000000000081525081526020016040518060400160405280600681526020017f436172726f74000000000000000000000000000000000000000000000000000081525081526020016040518060400160405280600581526020017f506561636800000000000000000000000000000000000000000000000000000081525081526020016040518060400160405280600581526020017f4170706c65000000000000000000000000000000000000000000000000000000815250815250600a906006620001e692919062000933565b506040518060c001604052806040518060400160405280600381526020017f576974000000000000000000000000000000000000000000000000000000000081525081526020016040518060400160405280600681526020017f436c65766572000000000000000000000000000000000000000000000000000081525081526020016040518060400160405280600681526020017f537461626c65000000000000000000000000000000000000000000000000000081525081526020016040518060400160405280600781526020017f4368616f7469630000000000000000000000000000000000000000000000000081525081526020016040518060400160405280600581526020017f4d6573737900000000000000000000000000000000000000000000000000000081525081526020016040518060400160405280600581526020017f476f646c79000000000000000000000000000000000000000000000000000000815250815250600b9060066200036492919062000933565b506040518060e001604052806040518060400160405280600681526020017f4d6164616d65000000000000000000000000000000000000000000000000000081525081526020016040518060400160405280600381526020017f417065000000000000000000000000000000000000000000000000000000000081525081526020016040518060400160405280600681526020017f4d6973746572000000000000000000000000000000000000000000000000000081525081526020016040518060400160405280600481526020017f4d61616d0000000000000000000000000000000000000000000000000000000081525081526020016040518060400160405280600581526020017f436c6f776e00000000000000000000000000000000000000000000000000000081525081526020016040518060400160405280600481526020017f466f6f6c0000000000000000000000000000000000000000000000000000000081525081526020016040518060400160405280600681526020017f4d61737465720000000000000000000000000000000000000000000000000000815250815250600c9060076200051d9291906200099a565b506040518060e001604052806040518060400160405280600381526020017f726564000000000000000000000000000000000000000000000000000000000081525081526020016040518060400160405280600581526020017f626c61636b00000000000000000000000000000000000000000000000000000081525081526020016040518060400160405280600581526020017f776869746500000000000000000000000000000000000000000000000000000081525081526020016040518060400160405280600581526020017f677265656e00000000000000000000000000000000000000000000000000000081525081526020016040518060400160405280600481526020017f626c75650000000000000000000000000000000000000000000000000000000081525081526020016040518060400160405280600681526020017f79656c6c6f77000000000000000000000000000000000000000000000000000081525081526020016040518060400160405280600481526020017f6772617900000000000000000000000000000000000000000000000000000000815250815250600d906007620006d69291906200099a565b50348015620006e457600080fd5b506040518060400160405280600d81526020017f576f726473546f4c6976654279000000000000000000000000000000000000008152506040518060400160405280600381526020017f57544c0000000000000000000000000000000000000000000000000000000000815250816000908051906020019062000769929190620008a2565b50806001908051906020019062000782929190620008a2565b505050620007d06040518060400160405280601981526020017f4e465420436f6e7472616374206973206c61756e636865642100000000000000815250620007d660201b620012b11760201c565b62000bbb565b6200087681604051602401620007ed919062000acf565b6040516020818303038152906040527f41304fac000000000000000000000000000000000000000000000000000000007bffffffffffffffffffffffffffffffffffffffffffffffffffffffff19166020820180517bffffffffffffffffffffffffffffffffffffffffffffffffffffffff83818316178352505050506200087960201b60201c565b50565b60008151905060006a636f6e736f6c652e6c6f679050602083016000808483855afa5050505050565b828054620008b09062000b45565b90600052602060002090601f016020900481019282620008d4576000855562000920565b82601f10620008ef57805160ff191683800117855562000920565b8280016001018555821562000920579182015b828111156200091f57825182559160200191906001019062000902565b5b5090506200092f919062000a01565b5090565b82805482825590600052602060002090810192821562000987579160200282015b828111156200098657825182908051906020019062000975929190620008a2565b509160200191906001019062000954565b5b50905062000996919062000a20565b5090565b828054828255906000526020600020908101928215620009ee579160200282015b82811115620009ed578251829080519060200190620009dc929190620008a2565b5091602001919060010190620009bb565b5b509050620009fd919062000a20565b5090565b5b8082111562000a1c57600081600090555060010162000a02565b5090565b5b8082111562000a44576000818162000a3a919062000a48565b5060010162000a21565b5090565b50805462000a569062000b45565b6000825580601f1062000a6a575062000a8b565b601f01602090049060005260206000209081019062000a8a919062000a01565b5b50565b600062000a9b8262000af3565b62000aa7818562000afe565b935062000ab981856020860162000b0f565b62000ac48162000baa565b840191505092915050565b6000602082019050818103600083015262000aeb818462000a8e565b905092915050565b600081519050919050565b600082825260208201905092915050565b60005b8381101562000b2f57808201518184015260208101905062000b12565b8381111562000b3f576000848401525b50505050565b6000600282049050600182168062000b5e57607f821691505b6020821081141562000b755762000b7462000b7b565b5b50919050565b7f4e487b7100000000000000000000000000000000000000000000000000000000600052602260045260246000fd5b6000601f19601f8301169050919050565b613cbc8062000bcb6000396000f3fe608060405234801561001057600080fd5b50600436106101215760003560e01c80636352211e116100ad578063b88d4fde11610071578063b88d4fde1461032c578063c575757a14610348578063c87b56dd14610378578063d795cdb7146103a8578063e985e9c5146103c657610121565b80636352211e1461026257806370a082311461029257806395d89b41146102c2578063a22cb465146102e0578063b187301f146102fc57610121565b806323b872dd116100f457806323b872dd146101c05780632de38d68146101dc57806342842e0e1461020c578063514dc8c61461022857806362b41f491461025857610121565b806301ffc9a71461012657806306fdde0314610156578063081812fc14610174578063095ea7b3146101a4575b600080fd5b610140600480360381019061013b91906126b1565b6103f6565b60405161014d9190612e3d565b60405180910390f35b61015e6104d8565b60405161016b9190612e58565b60405180910390f35b61018e60048036038101906101899190612703565b61056a565b60405161019b9190612dad565b60405180910390f35b6101be60048036038101906101b99190612675565b6105ef565b005b6101da60048036038101906101d5919061256f565b610707565b005b6101f660048036038101906101f19190612703565b610767565b6040516102039190612e58565b60405180910390f35b6102266004803603810190610221919061256f565b610885565b005b610242600480360381019061023d9190612703565b6108a5565b60405161024f9190612e58565b60405180910390f35b6102606109c3565b005b61027c60048036038101906102779190612703565b610c0a565b6040516102899190612dad565b60405180910390f35b6102ac60048036038101906102a7919061250a565b610cbc565b6040516102b991906130d8565b60405180910390f35b6102ca610d74565b6040516102d79190612e58565b60405180910390f35b6102fa60048036038101906102f59190612639565b610e06565b005b61031660048036038101906103119190612703565b610e1c565b6040516103239190612e58565b60405180910390f35b610346600480360381019061034191906125be565b610f3a565b005b610362600480360381019061035d9190612703565b610f9c565b60405161036f9190612e58565b60405180910390f35b610392600480360381019061038d9190612703565b6110ba565b60405161039f9190612e58565b60405180910390f35b6103b061120c565b6040516103bd91906130d8565b60405180910390f35b6103e060048036038101906103db9190612533565b61121d565b6040516103ed9190612e3d565b60405180910390f35b60007f80ac58cd000000000000000000000000000000000000000000000000000000007bffffffffffffffffffffffffffffffffffffffffffffffffffffffff1916827bffffffffffffffffffffffffffffffffffffffffffffffffffffffff191614806104c157507f5b5e139f000000000000000000000000000000000000000000000000000000007bffffffffffffffffffffffffffffffffffffffffffffffffffffffff1916827bffffffffffffffffffffffffffffffffffffffffffffffffffffffff1916145b806104d157506104d08261134a565b5b9050919050565b6060600080546104e79061336c565b80601f01602080910402602001604051908101604052809291908181526020018280546105139061336c565b80156105605780601f1061053557610100808354040283529160200191610560565b820191906000526020600020905b81548152906001019060200180831161054357829003601f168201915b5050505050905090565b6000610575826113b4565b6105b4576040517f08c379a00000000000000000000000000000000000000000000000000000000081526004016105ab90613018565b60405180910390fd5b6004600083815260200190815260200160002060009054906101000a900473ffffffffffffffffffffffffffffffffffffffff169050919050565b60006105fa82610c0a565b90508073ffffffffffffffffffffffffffffffffffffffff168373ffffffffffffffffffffffffffffffffffffffff16141561066b576040517f08c379a000000000000000000000000000000000000000000000000000000000815260040161066290613078565b60405180910390fd5b8073ffffffffffffffffffffffffffffffffffffffff1661068a611420565b73ffffffffffffffffffffffffffffffffffffffff1614806106b957506106b8816106b3611420565b61121d565b5b6106f8576040517f08c379a00000000000000000000000000000000000000000000000000000000081526004016106ef90612f58565b60405180910390fd5b6107028383611428565b505050565b610718610712611420565b826114e1565b610757576040517f08c379a000000000000000000000000000000000000000000000000000000000815260040161074e906130b8565b60405180910390fd5b6107628383836115bf565b505050565b6060600061079b6107778461181b565b6040516020016107879190612d47565b6040516020818303038152906040526119c8565b9050600a80549050816107ae9190613418565b9050600a81815481106107ea577f4e487b7100000000000000000000000000000000000000000000000000000000600052603260045260246000fd5b9060005260206000200180546107ff9061336c565b80601f016020809104026020016040519081016040528092919081815260200182805461082b9061336c565b80156108785780601f1061084d57610100808354040283529160200191610878565b820191906000526020600020905b81548152906001019060200180831161085b57829003601f168201915b5050505050915050919050565b6108a083838360405180602001604052806000815250610f3a565b505050565b606060006108d96108b58461181b565b6040516020016108c59190612d8b565b6040516020818303038152906040526119c8565b9050600d80549050816108ec9190613418565b9050600d8181548110610928577f4e487b7100000000000000000000000000000000000000000000000000000000600052603260045260246000fd5b90600052602060002001805461093d9061336c565b80601f01602080910402602001604051908101604052809291908181526020018280546109699061336c565b80156109b65780601f1061098b576101008083540402835291602001916109b6565b820191906000526020600020905b81548152906001019060200180831161099957829003601f168201915b5050505050915050919050565b60326109cf60076119fb565b1115610a10576040517f08c379a0000000000000000000000000000000000000000000000000000000008152600401610a0790613098565b60405180910390fd5b6000610a1c60076119fb565b90506000610a2982610767565b90506000610a3683610e1c565b90506000610a4384610f9c565b90506000838383604051602001610a5c93929190612c44565b60405160208183030381529060405290506000610a78866108a5565b90506000600882600985604051602001610a959493929190612c75565b60405160208183030381529060405290506000610ada84610ab584611a09565b604051602001610ac6929190612d02565b604051602081830303815290604052611a09565b9050600081604051602001610aef9190612d69565b6040516020818303038152906040529050610b3e6040518060400160405280601581526020017f0a2d2d2d2d2d2d2d2d2d2d2d2d2d2d2d2d2d2d2d2d00000000000000000000008152506112b1565b610b47816112b1565b610b856040518060400160405280601581526020017f2d2d2d2d2d2d2d2d2d2d2d2d2d2d2d2d2d2d2d2d0a00000000000000000000008152506112b1565b610b8f338a611bc7565b610b998982611be5565b610ba36007611c59565b610bc6604051806060016040528060248152602001613c23602491398a33611c6f565b7febb98688741ffa4c7589bf325de30cf7becb63de567842e1ccdb6cb949fdc82c338a604051610bf7929190612e14565b60405180910390a1505050505050505050565b6000806002600084815260200190815260200160002060009054906101000a900473ffffffffffffffffffffffffffffffffffffffff169050600073ffffffffffffffffffffffffffffffffffffffff168173ffffffffffffffffffffffffffffffffffffffff161415610cb3576040517f08c379a0000000000000000000000000000000000000000000000000000000008152600401610caa90612f98565b60405180910390fd5b80915050919050565b60008073ffffffffffffffffffffffffffffffffffffffff168273ffffffffffffffffffffffffffffffffffffffff161415610d2d576040517f08c379a0000000000000000000000000000000000000000000000000000000008152600401610d2490612f78565b60405180910390fd5b600360008373ffffffffffffffffffffffffffffffffffffffff1673ffffffffffffffffffffffffffffffffffffffff168152602001908152602001600020549050919050565b606060018054610d839061336c565b80601f0160208091040260200160405190810160405280929190818152602001828054610daf9061336c565b8015610dfc5780601f10610dd157610100808354040283529160200191610dfc565b820191906000526020600020905b815481529060010190602001808311610ddf57829003601f168201915b5050505050905090565b610e18610e11611420565b8383611d0e565b5050565b60606000610e50610e2c8461181b565b604051602001610e3c9190612ce0565b6040516020818303038152906040526119c8565b9050600b8054905081610e639190613418565b9050600b8181548110610e9f577f4e487b7100000000000000000000000000000000000000000000000000000000600052603260045260246000fd5b906000526020600020018054610eb49061336c565b80601f0160208091040260200160405190810160405280929190818152602001828054610ee09061336c565b8015610f2d5780601f10610f0257610100808354040283529160200191610f2d565b820191906000526020600020905b815481529060010190602001808311610f1057829003601f168201915b5050505050915050919050565b610f4b610f45611420565b836114e1565b610f8a576040517f08c379a0000000000000000000000000000000000000000000000000000000008152600401610f81906130b8565b60405180910390fd5b610f9684848484611e7b565b50505050565b60606000610fd0610fac8461181b565b604051602001610fbc9190612cbe565b6040516020818303038152906040526119c8565b9050600c8054905081610fe39190613418565b9050600c818154811061101f577f4e487b7100000000000000000000000000000000000000000000000000000000600052603260045260246000fd5b9060005260206000200180546110349061336c565b80601f01602080910402602001604051908101604052809291908181526020018280546110609061336c565b80156110ad5780601f10611082576101008083540402835291602001916110ad565b820191906000526020600020905b81548152906001019060200180831161109057829003601f168201915b5050505050915050919050565b60606110c5826113b4565b611104576040517f08c379a00000000000000000000000000000000000000000000000000000000081526004016110fb90612ff8565b60405180910390fd5b60006006600084815260200190815260200160002080546111249061336c565b80601f01602080910402602001604051908101604052809291908181526020018280546111509061336c565b801561119d5780601f106111725761010080835404028352916020019161119d565b820191906000526020600020905b81548152906001019060200180831161118057829003601f168201915b5050505050905060006111ae611ed7565b90506000815114156111c4578192505050611207565b6000825111156111f95780826040516020016111e1929190612c20565b60405160208183030381529060405292505050611207565b61120284611eee565b925050505b919050565b600061121860076119fb565b905090565b6000600560008473ffffffffffffffffffffffffffffffffffffffff1673ffffffffffffffffffffffffffffffffffffffff16815260200190815260200160002060008373ffffffffffffffffffffffffffffffffffffffff1673ffffffffffffffffffffffffffffffffffffffff16815260200190815260200160002060009054906101000a900460ff16905092915050565b611347816040516024016112c59190612e58565b6040516020818303038152906040527f41304fac000000000000000000000000000000000000000000000000000000007bffffffffffffffffffffffffffffffffffffffffffffffffffffffff19166020820180517bffffffffffffffffffffffffffffffffffffffffffffffffffffffff8381831617835250505050611f95565b50565b60007f01ffc9a7000000000000000000000000000000000000000000000000000000007bffffffffffffffffffffffffffffffffffffffffffffffffffffffff1916827bffffffffffffffffffffffffffffffffffffffffffffffffffffffff1916149050919050565b60008073ffffffffffffffffffffffffffffffffffffffff166002600084815260200190815260200160002060009054906101000a900473ffffffffffffffffffffffffffffffffffffffff1673ffffffffffffffffffffffffffffffffffffffff1614159050919050565b600033905090565b816004600083815260200190815260200160002060006101000a81548173ffffffffffffffffffffffffffffffffffffffff021916908373ffffffffffffffffffffffffffffffffffffffff160217905550808273ffffffffffffffffffffffffffffffffffffffff1661149b83610c0a565b73ffffffffffffffffffffffffffffffffffffffff167f8c5be1e5ebec7d5bd14f71427d1e84f3dd0314c0f7b2291e5b200ac8c7c3b92560405160405180910390a45050565b60006114ec826113b4565b61152b576040517f08c379a000000000000000000000000000000000000000000000000000000000815260040161152290612f38565b60405180910390fd5b600061153683610c0a565b90508073ffffffffffffffffffffffffffffffffffffffff168473ffffffffffffffffffffffffffffffffffffffff1614806115a557508373ffffffffffffffffffffffffffffffffffffffff1661158d8461056a565b73ffffffffffffffffffffffffffffffffffffffff16145b806115b657506115b5818561121d565b5b91505092915050565b8273ffffffffffffffffffffffffffffffffffffffff166115df82610c0a565b73ffffffffffffffffffffffffffffffffffffffff1614611635576040517f08c379a000000000000000000000000000000000000000000000000000000000815260040161162c90613038565b60405180910390fd5b600073ffffffffffffffffffffffffffffffffffffffff168273ffffffffffffffffffffffffffffffffffffffff1614156116a5576040517f08c379a000000000000000000000000000000000000000000000000000000000815260040161169c90612ef8565b60405180910390fd5b6116b0838383611fbe565b6116bb600082611428565b6001600360008573ffffffffffffffffffffffffffffffffffffffff1673ffffffffffffffffffffffffffffffffffffffff168152602001908152602001600020600082825461170b9190613282565b925050819055506001600360008473ffffffffffffffffffffffffffffffffffffffff1673ffffffffffffffffffffffffffffffffffffffff168152602001908152602001600020600082825461176291906131a1565b92505081905550816002600083815260200190815260200160002060006101000a81548173ffffffffffffffffffffffffffffffffffffffff021916908373ffffffffffffffffffffffffffffffffffffffff160217905550808273ffffffffffffffffffffffffffffffffffffffff168473ffffffffffffffffffffffffffffffffffffffff167fddf252ad1be2c89b69c2b068fc378daa952ba7f163c4a11628f55a4df523b3ef60405160405180910390a4505050565b60606000821415611863576040518060400160405280600181526020017f300000000000000000000000000000000000000000000000000000000000000081525090506119c3565b600082905060005b6000821461189557808061187e906133cf565b915050600a8261188e91906131f7565b915061186b565b60008167ffffffffffffffff8111156118d7577f4e487b7100000000000000000000000000000000000000000000000000000000600052604160045260246000fd5b6040519080825280601f01601f1916602001820160405280156119095781602001600182028036833780820191505090505b5090505b600085146119bc576001826119229190613282565b9150600a856119319190613418565b603061193d91906131a1565b60f81b818381518110611979577f4e487b7100000000000000000000000000000000000000000000000000000000600052603260045260246000fd5b60200101907effffffffffffffffffffffffffffffffffffffffffffffffffffffffffffff1916908160001a905350600a856119b591906131f7565b945061190d565b8093505050505b919050565b6000816040516020016119db9190612c09565b6040516020818303038152906040528051906020012060001c9050919050565b600081600001549050919050565b60606000825190506000811415611a325760405180602001604052806000815250915050611bc2565b60006003600283611a4391906131a1565b611a4d91906131f7565b6004611a599190613228565b90506000602082611a6a91906131a1565b67ffffffffffffffff811115611aa9577f4e487b7100000000000000000000000000000000000000000000000000000000600052604160045260246000fd5b6040519080825280601f01601f191660200182016040528015611adb5781602001600182028036833780820191505090505b5090506000604051806060016040528060408152602001613c47604091399050600181016020830160005b86811015611b7f5760038101905062ffffff818a015116603f8160121c168401518060081b905060ff603f83600c1c1686015116810190508060081b905060ff603f8360061c1686015116810190508060081b905060ff603f831686015116810190508060e01b90508084526004840193505050611b06565b506003860660018114611b995760028114611ba957611bb4565b613d3d60f01b6002830352611bb4565b603d60f81b60018303525b508484525050819450505050505b919050565b611be1828260405180602001604052806000815250611fc3565b5050565b611bee826113b4565b611c2d576040517f08c379a0000000000000000000000000000000000000000000000000000000008152600401611c2490612fb8565b60405180910390fd5b80600660008481526020019081526020016000209080519060200190611c54929190612396565b505050565b6001816000016000828254019250508190555050565b611d09838383604051602401611c8793929190612e7a565b6040516020818303038152906040527fe3849f79000000000000000000000000000000000000000000000000000000007bffffffffffffffffffffffffffffffffffffffffffffffffffffffff19166020820180517bffffffffffffffffffffffffffffffffffffffffffffffffffffffff8381831617835250505050611f95565b505050565b8173ffffffffffffffffffffffffffffffffffffffff168373ffffffffffffffffffffffffffffffffffffffff161415611d7d576040517f08c379a0000000000000000000000000000000000000000000000000000000008152600401611d7490612f18565b60405180910390fd5b80600560008573ffffffffffffffffffffffffffffffffffffffff1673ffffffffffffffffffffffffffffffffffffffff16815260200190815260200160002060008473ffffffffffffffffffffffffffffffffffffffff1673ffffffffffffffffffffffffffffffffffffffff16815260200190815260200160002060006101000a81548160ff0219169083151502179055508173ffffffffffffffffffffffffffffffffffffffff168373ffffffffffffffffffffffffffffffffffffffff167f17307eab39ab6107e8899845ad3d59bd9653f200f220920489ca2b5937696c3183604051611e6e9190612e3d565b60405180910390a3505050565b611e868484846115bf565b611e928484848461201e565b611ed1576040517f08c379a0000000000000000000000000000000000000000000000000000000008152600401611ec890612eb8565b60405180910390fd5b50505050565b606060405180602001604052806000815250905090565b6060611ef9826113b4565b611f38576040517f08c379a0000000000000000000000000000000000000000000000000000000008152600401611f2f90613058565b60405180910390fd5b6000611f42611ed7565b90506000815111611f625760405180602001604052806000815250611f8d565b80611f6c8461181b565b604051602001611f7d929190612c20565b6040516020818303038152906040525b915050919050565b60008151905060006a636f6e736f6c652e6c6f679050602083016000808483855afa5050505050565b505050565b611fcd83836121b5565b611fda600084848461201e565b612019576040517f08c379a000000000000000000000000000000000000000000000000000000000815260040161201090612eb8565b60405180910390fd5b505050565b600061203f8473ffffffffffffffffffffffffffffffffffffffff16612383565b156121a8578373ffffffffffffffffffffffffffffffffffffffff1663150b7a02612068611420565b8786866040518563ffffffff1660e01b815260040161208a9493929190612dc8565b602060405180830381600087803b1580156120a457600080fd5b505af19250505080156120d557506040513d601f19601f820116820180604052508101906120d291906126da565b60015b612158573d8060008114612105576040519150601f19603f3d011682016040523d82523d6000602084013e61210a565b606091505b50600081511415612150576040517f08c379a000000000000000000000000000000000000000000000000000000000815260040161214790612eb8565b60405180910390fd5b805181602001fd5b63150b7a0260e01b7bffffffffffffffffffffffffffffffffffffffffffffffffffffffff1916817bffffffffffffffffffffffffffffffffffffffffffffffffffffffff1916149150506121ad565b600190505b949350505050565b600073ffffffffffffffffffffffffffffffffffffffff168273ffffffffffffffffffffffffffffffffffffffff161415612225576040517f08c379a000000000000000000000000000000000000000000000000000000000815260040161221c90612fd8565b60405180910390fd5b61222e816113b4565b1561226e576040517f08c379a000000000000000000000000000000000000000000000000000000000815260040161226590612ed8565b60405180910390fd5b61227a60008383611fbe565b6001600360008473ffffffffffffffffffffffffffffffffffffffff1673ffffffffffffffffffffffffffffffffffffffff16815260200190815260200160002060008282546122ca91906131a1565b92505081905550816002600083815260200190815260200160002060006101000a81548173ffffffffffffffffffffffffffffffffffffffff021916908373ffffffffffffffffffffffffffffffffffffffff160217905550808273ffffffffffffffffffffffffffffffffffffffff16600073ffffffffffffffffffffffffffffffffffffffff167fddf252ad1be2c89b69c2b068fc378daa952ba7f163c4a11628f55a4df523b3ef60405160405180910390a45050565b600080823b905060008111915050919050565b8280546123a29061336c565b90600052602060002090601f0160209004810192826123c4576000855561240b565b82601f106123dd57805160ff191683800117855561240b565b8280016001018555821561240b579182015b8281111561240a5782518255916020019190600101906123ef565b5b509050612418919061241c565b5090565b5b8082111561243557600081600090555060010161241d565b5090565b600061244c61244784613118565b6130f3565b90508281526020810184848401111561246457600080fd5b61246f84828561332a565b509392505050565b60008135905061248681613bc6565b92915050565b60008135905061249b81613bdd565b92915050565b6000813590506124b081613bf4565b92915050565b6000815190506124c581613bf4565b92915050565b600082601f8301126124dc57600080fd5b81356124ec848260208601612439565b91505092915050565b60008135905061250481613c0b565b92915050565b60006020828403121561251c57600080fd5b600061252a84828501612477565b91505092915050565b6000806040838503121561254657600080fd5b600061255485828601612477565b925050602061256585828601612477565b9150509250929050565b60008060006060848603121561258457600080fd5b600061259286828701612477565b93505060206125a386828701612477565b92505060406125b4868287016124f5565b9150509250925092565b600080600080608085870312156125d457600080fd5b60006125e287828801612477565b94505060206125f387828801612477565b9350506040612604878288016124f5565b925050606085013567ffffffffffffffff81111561262157600080fd5b61262d878288016124cb565b91505092959194509250565b6000806040838503121561264c57600080fd5b600061265a85828601612477565b925050602061266b8582860161248c565b9150509250929050565b6000806040838503121561268857600080fd5b600061269685828601612477565b92505060206126a7858286016124f5565b9150509250929050565b6000602082840312156126c357600080fd5b60006126d1848285016124a1565b91505092915050565b6000602082840312156126ec57600080fd5b60006126fa848285016124b6565b91505092915050565b60006020828403121561271557600080fd5b6000612723848285016124f5565b91505092915050565b612735816132b6565b82525050565b612744816132c8565b82525050565b60006127558261315e565b61275f8185613174565b935061276f818560208601613339565b61277881613505565b840191505092915050565b600061278e82613169565b6127988185613185565b93506127a8818560208601613339565b6127b181613505565b840191505092915050565b60006127c782613169565b6127d18185613196565b93506127e1818560208601613339565b80840191505092915050565b600081546127fa8161336c565b6128048186613196565b9450600182166000811461281f576001811461283057612863565b60ff19831686528186019350612863565b61283985613149565b60005b8381101561285b5781548189015260018201915060208101905061283c565b838801955050505b50505092915050565b6000612879603283613185565b915061288482613516565b604082019050919050565b600061289c601c83613185565b91506128a782613565565b602082019050919050565b60006128bf600a83613196565b91506128ca8261358e565b600a82019050919050565b60006128e2602483613185565b91506128ed826135b7565b604082019050919050565b6000612905601983613185565b915061291082613606565b602082019050919050565b6000612928600b83613196565b91506129338261362f565b600b82019050919050565b600061294b602c83613185565b915061295682613658565b604082019050919050565b600061296e600d83613196565b9150612979826136a7565b600d82019050919050565b6000612991606283613196565b915061299c826136d0565b606282019050919050565b60006129b4603883613185565b91506129bf8261376b565b604082019050919050565b60006129d7602a83613185565b91506129e2826137ba565b604082019050919050565b60006129fa602983613185565b9150612a0582613809565b604082019050919050565b6000612a1d602e83613185565b9150612a2882613858565b604082019050919050565b6000612a40600283613196565b9150612a4b826138a7565b600282019050919050565b6000612a63602083613185565b9150612a6e826138d0565b602082019050919050565b6000612a86603183613185565b9150612a91826138f9565b604082019050919050565b6000612aa9602c83613185565b9150612ab482613948565b604082019050919050565b6000612acc602983613185565b9150612ad782613997565b604082019050919050565b6000612aef602f83613185565b9150612afa826139e6565b604082019050919050565b6000612b12600a83613196565b9150612b1d82613a35565b600a82019050919050565b6000612b35602183613185565b9150612b4082613a5e565b604082019050919050565b6000612b58602c83613185565b9150612b6382613aad565b604082019050919050565b6000612b7b600a83613196565b9150612b8682613afc565b600a82019050919050565b6000612b9e601d83613196565b9150612ba982613b25565b601d82019050919050565b6000612bc1603183613185565b9150612bcc82613b4e565b604082019050919050565b6000612be4600583613196565b9150612bef82613b9d565b600582019050919050565b612c0381613320565b82525050565b6000612c1582846127bc565b915081905092915050565b6000612c2c82856127bc565b9150612c3882846127bc565b91508190509392505050565b6000612c5082866127bc565b9150612c5c82856127bc565b9150612c6882846127bc565b9150819050949350505050565b6000612c8182876127ed565b9150612c8d82866127bc565b9150612c9982856127ed565b9150612ca582846127bc565b9150612cb082612961565b915081905095945050505050565b6000612cc9826128b2565b9150612cd582846127bc565b915081905092915050565b6000612ceb8261291b565b9150612cf782846127bc565b915081905092915050565b6000612d0d82612b05565b9150612d1982856127bc565b9150612d2482612984565b9150612d3082846127bc565b9150612d3b82612a33565b91508190509392505050565b6000612d5282612b6e565b9150612d5e82846127bc565b915081905092915050565b6000612d7482612b91565b9150612d8082846127bc565b915081905092915050565b6000612d9682612bd7565b9150612da282846127bc565b915081905092915050565b6000602082019050612dc2600083018461272c565b92915050565b6000608082019050612ddd600083018761272c565b612dea602083018661272c565b612df76040830185612bfa565b8181036060830152612e09818461274a565b905095945050505050565b6000604082019050612e29600083018561272c565b612e366020830184612bfa565b9392505050565b6000602082019050612e52600083018461273b565b92915050565b60006020820190508181036000830152612e728184612783565b905092915050565b60006060820190508181036000830152612e948186612783565b9050612ea36020830185612bfa565b612eb0604083018461272c565b949350505050565b60006020820190508181036000830152612ed18161286c565b9050919050565b60006020820190508181036000830152612ef18161288f565b9050919050565b60006020820190508181036000830152612f11816128d5565b9050919050565b60006020820190508181036000830152612f31816128f8565b9050919050565b60006020820190508181036000830152612f518161293e565b9050919050565b60006020820190508181036000830152612f71816129a7565b9050919050565b60006020820190508181036000830152612f91816129ca565b9050919050565b60006020820190508181036000830152612fb1816129ed565b9050919050565b60006020820190508181036000830152612fd181612a10565b9050919050565b60006020820190508181036000830152612ff181612a56565b9050919050565b6000602082019050818103600083015261301181612a79565b9050919050565b6000602082019050818103600083015261303181612a9c565b9050919050565b6000602082019050818103600083015261305181612abf565b9050919050565b6000602082019050818103600083015261307181612ae2565b9050919050565b6000602082019050818103600083015261309181612b28565b9050919050565b600060208201905081810360008301526130b181612b4b565b9050919050565b600060208201905081810360008301526130d181612bb4565b9050919050565b60006020820190506130ed6000830184612bfa565b92915050565b60006130fd61310e565b9050613109828261339e565b919050565b6000604051905090565b600067ffffffffffffffff821115613133576131326134d6565b5b61313c82613505565b9050602081019050919050565b60008190508160005260206000209050919050565b600081519050919050565b600081519050919050565b600082825260208201905092915050565b600082825260208201905092915050565b600081905092915050565b60006131ac82613320565b91506131b783613320565b9250827fffffffffffffffffffffffffffffffffffffffffffffffffffffffffffffffff038211156131ec576131eb613449565b5b828201905092915050565b600061320282613320565b915061320d83613320565b92508261321d5761321c613478565b5b828204905092915050565b600061323382613320565b915061323e83613320565b9250817fffffffffffffffffffffffffffffffffffffffffffffffffffffffffffffffff048311821515161561327757613276613449565b5b828202905092915050565b600061328d82613320565b915061329883613320565b9250828210156132ab576132aa613449565b5b828203905092915050565b60006132c182613300565b9050919050565b60008115159050919050565b60007fffffffff0000000000000000000000000000000000000000000000000000000082169050919050565b600073ffffffffffffffffffffffffffffffffffffffff82169050919050565b6000819050919050565b82818337600083830152505050565b60005b8381101561335757808201518184015260208101905061333c565b83811115613366576000848401525b50505050565b6000600282049050600182168061338457607f821691505b60208210811415613398576133976134a7565b5b50919050565b6133a782613505565b810181811067ffffffffffffffff821117156133c6576133c56134d6565b5b80604052505050565b60006133da82613320565b91507fffffffffffffffffffffffffffffffffffffffffffffffffffffffffffffffff82141561340d5761340c613449565b5b600182019050919050565b600061342382613320565b915061342e83613320565b92508261343e5761343d613478565b5b828206905092915050565b7f4e487b7100000000000000000000000000000000000000000000000000000000600052601160045260246000fd5b7f4e487b7100000000000000000000000000000000000000000000000000000000600052601260045260246000fd5b7f4e487b7100000000000000000000000000000000000000000000000000000000600052602260045260246000fd5b7f4e487b7100000000000000000000000000000000000000000000000000000000600052604160045260246000fd5b6000601f19601f8301169050919050565b7f4552433732313a207472616e7366657220746f206e6f6e20455243373231526560008201527f63656976657220696d706c656d656e7465720000000000000000000000000000602082015250565b7f4552433732313a20746f6b656e20616c7265616479206d696e74656400000000600082015250565b7f54484952445f574f524400000000000000000000000000000000000000000000600082015250565b7f4552433732313a207472616e7366657220746f20746865207a65726f2061646460008201527f7265737300000000000000000000000000000000000000000000000000000000602082015250565b7f4552433732313a20617070726f766520746f2063616c6c657200000000000000600082015250565b7f5345434f4e445f574f5244000000000000000000000000000000000000000000600082015250565b7f4552433732313a206f70657261746f7220717565727920666f72206e6f6e657860008201527f697374656e7420746f6b656e0000000000000000000000000000000000000000602082015250565b7f3c2f746578743e3c2f7376673e00000000000000000000000000000000000000600082015250565b7f222c20226465736372697074696f6e223a20224120636f6c6c656374696f6e2060008201527f6f66207068696c6f736f706869657320746f204c6976652042792e222c20226960208201527f6d616765223a2022646174613a696d6167652f7376672b786d6c3b626173653660408201527f342c000000000000000000000000000000000000000000000000000000000000606082015250565b7f4552433732313a20617070726f76652063616c6c6572206973206e6f74206f7760008201527f6e6572206e6f7220617070726f76656420666f7220616c6c0000000000000000602082015250565b7f4552433732313a2062616c616e636520717565727920666f7220746865207a6560008201527f726f206164647265737300000000000000000000000000000000000000000000602082015250565b7f4552433732313a206f776e657220717565727920666f72206e6f6e657869737460008201527f656e7420746f6b656e0000000000000000000000000000000000000000000000602082015250565b7f45524337323155524953746f726167653a2055524920736574206f66206e6f6e60008201527f6578697374656e7420746f6b656e000000000000000000000000000000000000602082015250565b7f227d000000000000000000000000000000000000000000000000000000000000600082015250565b7f4552433732313a206d696e7420746f20746865207a65726f2061646472657373600082015250565b7f45524337323155524953746f726167653a2055524920717565727920666f722060008201527f6e6f6e6578697374656e7420746f6b656e000000000000000000000000000000602082015250565b7f4552433732313a20617070726f76656420717565727920666f72206e6f6e657860008201527f697374656e7420746f6b656e0000000000000000000000000000000000000000602082015250565b7f4552433732313a207472616e73666572206f6620746f6b656e2074686174206960008201527f73206e6f74206f776e0000000000000000000000000000000000000000000000602082015250565b7f4552433732314d657461646174613a2055524920717565727920666f72206e6f60008201527f6e6578697374656e7420746f6b656e0000000000000000000000000000000000602082015250565b7f7b226e616d65223a202200000000000000000000000000000000000000000000600082015250565b7f4552433732313a20617070726f76616c20746f2063757272656e74206f776e6560008201527f7200000000000000000000000000000000000000000000000000000000000000602082015250565b7f546865204e465420636f6c6c656374696f6e206d6178696d756d20686173206260008201527f65656e20726561636865642e0000000000000000000000000000000000000000602082015250565b7f46495253545f574f524400000000000000000000000000000000000000000000600082015250565b7f646174613a6170706c69636174696f6e2f6a736f6e3b6261736536342c000000600082015250565b7f4552433732313a207472616e736665722063616c6c6572206973206e6f74206f60008201527f776e6572206e6f7220617070726f766564000000000000000000000000000000602082015250565b7f434f4c4f52000000000000000000000000000000000000000000000000000000600082015250565b613bcf816132b6565b8114613bda57600080fd5b50565b613be6816132c8565b8114613bf157600080fd5b50565b613bfd816132d4565b8114613c0857600080fd5b50565b613c1481613320565b8114613c1f57600080fd5b5056fe4e4654207769746820494420257320686173206265656e206d696e74656420746f2025734142434445464748494a4b4c4d4e4f505152535455565758595a6162636465666768696a6b6c6d6e6f707172737475767778797a303132333435363738392b2fa264697066735822122061be4b1d2e094c8337a469361e73693daeb2a3ebba14fb10560eee0609a3893e64736f6c634300080400333c73766720786d6c6e733d27687474703a2f2f7777772e77332e6f72672f323030302f73766727207072657365727665417370656374526174696f3d27784d696e594d696e206d656574272076696577426f783d273020302033353020333530273e3c7374796c653e2e62617365207b2066696c6c3a2077686974653b20666f6e742d66616d696c793a2073657269663b20666f6e742d73697a653a20323470783b207d3c2f7374796c653e3c726563742077696474683d273130302527206865696768743d2731303025272066696c6c3d2727202f3e3c7465787420783d273530252720793d273530252720636c6173733d27626173652720646f6d696e616e742d626173656c696e653d276d6964646c652720746578742d616e63686f723d276d6964646c65273e",
  "linkReferences": {},
  "deployedLinkReferences": {}
}